:0400000010EF00F00D
:100020000001600EAD6F020EB16F400EB36F0401A0
:10003000C96B186BC16BF00EC76F086BBF6B050106
:10004000056B23EF00F0F86A030EF76EF66A43ECD7
:1000500000F00501052BFA0E056323EF00F031EFE8
:1000600000F00501056B35EF00F0F86A040EF76E3D
:10007000F66A43EC00F00501052BFA0E056335EF37
:1000800000F01FEF00F00900F5C4C1F4BF860501C0
:1000900068EC00F00401BF960900F5C4C1F4BF8507
:1000A000050168EC00F00401BF950900F5C4C1F436
:1000B000BF83050168EC00F00401BF930900F5C49B
:1000C000C1F4BF81050168EC00F00401BF9112008A
:1000D00005010A0E006F6E0E016F012F6DEF00F02B
:0800E000002F6BEF00F012008D
:04030000763F387795
:04040000003E73390E
:020000040030CA
:08000000FCFF3BDF9FFFFFFF47
:01000900FFF7
:00000001FF
