:0400000010EF00F00D
:100020000001600EAD6F040EB16F400EB36F04019E
:10003000C96BC781186B0891C16B0401CFA11DEF7B
:1000400000F00501000E036F000EF86E0F0EF76E44
:10005000000EF66E0800F5500401C16F3BEC00F095
:10006000F62AF62AF62A0501032B0A0E03632AEF65
:1000700000F01DEF00F0960E006FFA0E016F320EC9
:10008000026F022F41EF00F0012F3FEF00F0002F31
:060090003DEF00F012003C
:010F000048A8
:010F03001CD1
:010F06003BAF
:010F090029BE
:010F0C006F75
:010F0F00538E
:010F1200AB33
:010F15004E8D
:010F18001DBB
:010F1B00FFD6
:020000040030CA
:08000000FCFF3BDF9FFFFFFF47
:01000900FFF7
:00000001FF
