:040000000AEF00F013
:1000140000013C0EAD6F020EB16F280EB36F0401E8
:10002400C96B186BC16B000EF86F050EF76F000EED
:10003400F66F0800F551C16F32EC00F0F62B0800A2
:10004400F551C16F32EC00F0F62B0800F551C16F89
:1000540032EC00F0F62B0800F551C16F15EF00F0FB
:10006400640E006FFA0E016F050E026F022F38EF57
:1000740000F0012F36EF00F0002F34EF00F01200F3
:0405000004AFBE89FD
:020000040030CA
:080000008CFFFFFFFFFFFFFF73
:01000900FFF7
:00000001FF
