:0400000010EF00F00D
:100020000001600EAD6F020EB16F400EB36F0401A0
:10003000C96B186BC16BF00EC76F086BBF6B006AA2
:10004000016A026A036A050E046E4AEC00F054EC81
:1000500000F05EEC00F069EC00F0042E25EF00F0FB
:10006000002A090E006423EF00F0006A012A090E3D
:10007000016423EF00F0016A022A090E026423EFF3
:1000800000F0026A032A090E036423EF00F0036AFA
:1000900023EF00F0010EBF6F0050002474EC00F05D
:1000A000C16F86EC00F01200020EBF6F01500124F8
:1000B00074EC00F0C16F86EC00F0120002500224D4
:1000C00074EC00F0C16F040EBF6F86EC00F0BF6BE4
:1000D00012000350032474EC00F0C16F080EBF6FD0
:1000E00086EC00F0BF6B12000401F9273F0C060CF0
:1000F0005B0C4F0C660C6D0C7D0C070C7F0C6F0CB1
:10010000000C000C000C000C000C000C500E056ED6
:08011000052E88EF00F012003B
:020000040030CA
:08000000FCFF3BDF9FFFFFFF47
:01000900FFF7
:00000001FF
