:0400000010EF00F00D
:100020000001600EAD6F020EB16F400EB36F0401A0
:10003000C96B186BC16BC6810091F00EC76F086B5E
:10004000BF6BCEA026EF00F02CEF00F0F86A030E95
:10005000F76EF66A32EF00F0F86A040EF76EF66A91
:1000600032EF00F00900F5C4C1F4BF87050158EC78
:1000700000F00401BF970900F5C4C1F4BF85050174
:1000800058EC00F00401BF950900F5C4C1F4BF832A
:10009000050158EC00F00401BF930900F5C4C1F458
:1000A000BF81050158EC00F00401BF9121EF00F081
:1000B000030E006F6E0E016F012F5CEF00F0002F3A
:0600C0005AEF00F01200EF
:04030000763F387795
:04040000003E73390E
:020000040030CA
:08000000FCFF3BDF9FFFFFFF47
:01000900FFF7
:00000001FF
