:0400000010EF00F00D
:100020000001600EAD6F020EB16F400EB36F0401A0
:10003000C96B186BC16BF00EC76F086BBF6BC681C5
:100040000091006A016A026A036A640E046E6FEC32
:1000500000F079EC00F083EC00F08EEC00F0042E60
:1000600027EF00F0CEA037EF00F051EF00F0002AAC
:10007000090E006425EF00F0006A012A090E0164F0
:1000800025EF00F0016A022A090E026425EF00F054
:10009000026A032A090E036425EF00F0036A25EFC4
:1000A00000F00006000E006225EF00F0090E006E61
:1000B0000106000E016225EF00F0090E016E020636
:1000C000000E026225EF00F0090E026E0306000E1C
:1000D000036225EF00F0090E036E25EF00F0010E1C
:1000E000BF6F0050002499EC00F0C16FABEC00F042
:1000F0001200020EBF6F0150012499EC00F0C16F95
:10010000ABEC00F012000250022499EC00F0C16F39
:10011000040EBF6FABEC00F0BF6B12000350032462
:1001200099EC00F0C16F080EBF6FABEC00F0BF6B35
:1001300012000401F9273F0C060C5B0C4F0C660CF7
:100140006D0C7D0C070C7F0C6F0C000C000C000C70
:10015000000C000C000C640E056E052EADEF00F0D7
:0201600012008B
:020000040030CA
:08000000FCFF3BDF9FFFFFFF47
:01000900FFF7
:00000001FF
