:0400000010EF00F00D
:100020000001600EAD6F020EB16F400EB36F0401A0
:10003000C96B186BC16B390EC16F4DEC00F0500EDF
:10004000C16F4DEC00F0060EC16F4DEC00F06D0E6F
:10005000C16F4DEC00F0780EC16F4DEC00F03F0E1B
:10006000C16F4DEC00F0000EC16F4DEC00F0780E4A
:10007000C16F4DEC00F0790EC16F4DEC00F0770EC2
:10008000C16F4DEC00F0370EC16F4DEC00F0770EF4
:10009000C16F4DEC00F01BEF00F00501640E006F26
:1000A0006E0E016F080E026F022F54EF00F0012F49
:0E00B00052EF00F0002F50EF00F0040112009C
:020000040030CA
:08000000FCFF3BDF9FFFFFFF47
:01000900FFF7
:00000001FF
