:0400000010EF00F00D
:100020000001600EAD6F020EB16F400EB36F0401A0
:10003000C96B186BC16BF00EC76F086BBF6B050106
:10004000056BF86A030EF76E000EF66EB7EC00F063
:100050000501052BFA0E056321EF00F00501056B84
:10006000F86A030EF76E100EF66EB7EC00F005019D
:10007000052BFA0E056330EF00F00501056BF86AF9
:10008000030EF76E200EF66EB7EC00F00501052B9F
:10009000FA0E05633FEF00F00501056BF86A030EE9
:1000A000F76E300EF66EB7EC00F00501052BFA0E78
:1000B00005634EEF00F00501056BF86A030EF76E5D
:1000C000400EF66EB7EC00F00501052BFA0E056345
:1000D0005DEF00F00501056BF86A030EF76E500E38
:1000E000F66EB7EC00F00501052BFA0E05636CEF18
:1000F00000F00501056BF86A030EF76E600EF66EF0
:10010000B7EC00F00501052BFA0E05637BEF00F05C
:100110000501056BF86A030EF76E700EF66EB7EC0C
:1001200000F00501052BFA0E05638AEF00F00501CA
:10013000056BF86A030EF76E800EF66EB7EC00F0F2
:100140000501052BFA0E056399EF00F00501056B1B
:10015000F86A030EF76E900EF66EB7EC00F005012C
:10016000052BFA0E0563A8EF00F01FEF00F0040165
:100170000900F5C4C1F4BF870501DDEC00F00401FE
:10018000BF970900F5C4C1F4BF850501DDEC00F09F
:100190000401BF950900F5C4C1F4BF830501DDEC7E
:1001A00000F00401BF930900F5C4C1F4BF8105014B
:1001B000DDEC00F00401BF9112000501070E006F95
:1001C000320E016F012FE2EF00F0002FE0EF00F0A0
:0201D00012001B
:04030000783F5E3FA5
:040310003F7C507767
:040320007377507728
:040330007C06793797
:0403400000005E79E2
:0403500000383F6DC5
:0403600000673E797B
:04037000775577370F
:040380000000007702
:040390005E063F6D59
:020000040030CA
:08000000FCFF3BDF9FFFFFFF47
:01000900FFF7
:00000001FF
